:100000000C9497000C94B6000C94B6000C94B600B7
:100010000C94B6000C94B6000C94B6000C94B60088
:100020000C94C2000C94B6000C94B6000C94B6006C
:100030000C94B8000C94B6000C94B6000C94B60066
:100040000C94B6000C94B6000C94B6000C94B60058
:100050000C94B6000C94B6000C94B6000C94B60048
:100060000C94B6000C94B6000C94B6000C94B60038
:100070000C94B6000C94B6000C94B6000C94B60028
:100080000C94B6000C947B050C94B600BC0593054B
:10009000930593059305930593059305BC05930577
:1000A000930593059305930593059305C60593055D
:1000B0009305930593059305930593059305930580
:1000C000930593059305930593059305C60593053D
:1000D0009305930593059305930593059305930560
:1000E000930593059305930593059305DD05930506
:1000F000930593059305930593059305E1059305F2
:10010000930593059305930593059305930593052F
:10011000930593059305930593059305EF059305C3
:10012000930593059305930593059305AD05112458
:100130001FBECFEFD0E1DEBFCDBF12E0A0E0B1E047
:10014000E6E1F5E100E00BBF02C007900D92A030A0
:10015000B107D9F723E0A0E0B2E001C01D92AC31B5
:10016000B207E1F70E9461090C94890A0C9400001F
:100170001F920F920FB60F9211240F900FBE0F9087
:100180001F9018951F920F920FB60F9211248F9304
:1001900081E0809308038F910F900FBE0F901F9006
:1001A000189591E0811101C090E09FB9779BFECF37
:1001B0006FB9779BFECF8091620088608093620068
:1001C00080916200877F80936200089520910002F1
:1001D000820F911DFC01808191E09FB9779BFECF3A
:1001E0008FB9779BFECF8091620088608093620018
:1001F00080916200877F80936200809100028F5F10
:10020000809300028031D9F0803209F0089585EDA5
:100210008A95F1F700001FB8779BFECF80E88FB971
:10022000779BFECF8091620088608093620080910E
:100230006200877F80936200109200020895F5EDBE
:10024000FA95F1F700001FB8779BFECF80EC8FB9CD
:10025000779BFECF809162008860809362008091DE
:100260006200877F8093620080910002CDCF660F8D
:10027000660F660F605C1FB8779BFECF6FB9779BE8
:10028000FECF2091620028602093620020916200DE
:10029000277F2093620025ED2A95F1F70000FC01ED
:1002A0009C01285F3F4F91E081919FB9779BFECFE2
:1002B0008FB9779BFECF8091620088608093620047
:1002C00080916200877F8093620085ED8A95F1F7C7
:1002D0000000E217F30741F7089590E4899F600D4D
:1002E0001124605C1FB8779BFECF6FB9779BFECF60
:1002F0008091620088608093620080916200877FB5
:10030000809362000895811113C081E08FB9779BBB
:10031000FECF80E38FB9779BFECF8091620088602B
:100320008093620080916200877F809362000895CD
:100330008436B0F48A3060F591E09FB9779BFECFA8
:100340009DEC899F912D11249695969596952AE07E
:10035000929F80191124805D8FB9779BFECFDDCFEE
:1003600099E2899F912D112492959F70905D21E0D3
:100370002FB9779BFECF9FB9779BFECF90916200FC
:1003800098609093620090916200977F90936200D2
:1003900099E2899F912D112492959F70382F24E620
:1003A000929F301911242DEC329F912D1124969596
:1003B00096959695905D21E02FB9779BFECF9FB9DA
:1003C000779BFECF9091620098609093620090912D
:1003D0006200977F90936200AFCF87FF0C948301F8
:1003E00091E09FB9779BFECF9DE29FB9779BFECFAF
:1003F0009091620098609093620090916200977F64
:100400009093620095ED9A95F1F7000081950C9418
:1004100083011FB8779BFECF8EE08FB9779BFECF0D
:100420008091620088608093620080916200877F83
:100430008093620008951FB8779BFECF8CE08FB940
:10044000779BFECF809162008860809362008091EC
:100450006200877F8093620008951FB8779BFECF6C
:100460008EE18FB9779BFECF809162008860809388
:10047000620080916200877F8093620008951FB8B8
:10048000779BFECF88E18FB9779BFECF809162008A
:1004900088608093620080916200877F8093620011
:1004A0000895E2E6F0E08081886080838081877F24
:1004B000808308951FB8779BFECF81E08FB9779B2B
:1004C000FECF80916200886080936200809162001C
:1004D000877F809362008FE19CE10197F1F700C074
:1004E000000008951FB8779BFECF82E08FB9779BFD
:1004F000FECF8091620088608093620080916200EC
:10050000877F809362008FE697E10197F1F700C043
:10051000000008951FB8779BFECF80EC8FB9779BC2
:10052000FECF8091620088608093620080916200BB
:10053000877F8093620008951FB8779BFECF80E885
:100540008FB9779BFECF80916200886080936200B4
:1005500080916200877F80936200089590E131E08E
:1005600020E23FB9779BFECF2FB9779BFECF8091DA
:10057000620088608093620080916200877F809330
:10058000620085ED8A95F1F70000915051F70895CA
:1005900091E09FB9779BFECF8FB9779BFECF80917B
:1005A000620088608093620080916200877F809300
:1005B00062000895FC0140E050E060E071E0DF017E
:1005C000A40FB51F8C917FB9779BFECF8FB9779B16
:1005D000FECF9091620098609093620090916200CB
:1005E000977F9093620085ED8A95F1F700006F5F29
:1005F000462F50E0DF010D900020E9F79D012E1BF2
:100600003F0B2250310924173507C8F608958FEFA4
:1006100099EF0197F1F700C0000088E08093610036
:100620001FB8779BFECF80E38FB9779BFECF809179
:10063000620088608093620080916200877F80936F
:1006400062008FE59DE60197F1F700C000001FB83A
:10065000779BFECF80E38FB9779BFECF80916200BE
:1006600088608093620080916200877F809362003F
:100670008FE59DE60197F1F700C000001FB8779B5A
:10068000FECF80E38FB9779BFECF809162008860B8
:100690008093620080916200877F809362008FE583
:1006A0009DE60197F1F700C000001FB8779BFECFD1
:1006B00088E38FB9779BFECF80916200886080933A
:1006C000620080916200877F809362008FE19EE4E8
:1006D0000197F1F700C000001FB8779BFECF88E0BC
:1006E0008FB9779BFECF8091620088608093620013
:1006F00080916200877F809362008FE19EE4019782
:10070000F1F700C000001FB8779BFECF81E08FB9E2
:10071000779BFECF80916200886080936200809119
:100720006200877F809362008FE19EE40197F1F77A
:1007300000C000001FB8779BFECF86E08FB9779B83
:10074000FECF809162008860809362008091620099
:10075000877F809362008FE19EE40197F1F700C0EC
:1007600000001FB8779BFECF8CE08FB9779BFECF40
:100770008091620088608093620080916200877F30
:10078000809362008FE19EE40197F1F700C00000C2
:1007900008954F925F926F927F928F929F92AF9245
:1007A000BF92CF92DF92EF92FF920F931F93CF935E
:1007B000DF93CDB7DEB769970FB6F894DEBF0FBEF3
:1007C000CDBF142F422E5E2C002379F06B017C01EB
:1007D000CC24F7FCC394DD24EE24FF240C2D6B0104
:1007E0007C0197FDA3C0C701B601442009F496C05F
:1007F0009E012F5F3F4F5901490166246A94640CA2
:10080000712C3FEF631A730A6A0C7B1C2AE030E0FC
:1008100040E050E00E94C609E62F2A8B3B8B4C8BB0
:100820005D8B6A897B898C899D8920E32E0FF40179
:1008300021934F016E167F0649F799249394940CE7
:10084000F501E40DF11D2EE220832AE030E040E0C6
:1008500050E00E94C609E62F2A8B3B8B4C8B5D8BA8
:100860006E8B7F8B888F998F6A897B898C899D8914
:1008700031E0390DD501A90DB11DE05DEC93932E4A
:10088000611571058105910501F7112361F0511082
:100890004BC090E2311738F4F501E30FF11D90835E
:1008A0003F5F1313F9CF002331F0F501E30FF11D82
:1008B0009DE290833F5F21E03150F501E30FF11D90
:1008C00090812FB9779BFECF9FB9779BFECF9091F8
:1008D000620098609093620090916200977F90937D
:1008E000620085ED8A95F1F700003111E5CF699638
:1008F0000FB6F894DEBF0FBECDBFDF91CF911F9131
:100900000F91FF90EF90DF90CF90BF90AF909F90AE
:100910008F907F906F905F904F900895912C9E01E3
:100920002F5F3F4F590191CF90E3B4CFF094E09403
:10093000D094C094C11CD11CE11CF11C54CF5F9217
:100940006F927F928F929F92AF92BF92CF92DF92DF
:10095000EF92FF920F931F93CF93DF93CDB7DEB744
:1009600061970FB6F894DEBF0FBECDBF5C01962E27
:10097000542E622E8B2C881C8824881C782C9C0179
:1009800097FD9DC0552009F48EC08E010F5F1F4F4B
:100990007801CC24CA94C50CD12C8FEFC81AD80A80
:1009A000C00ED11E6AE070E0C9010E94B209462F54
:1009B000242F372F805DF70181937F01EC15FD0512
:1009C00089F7FF24F394F50CF801E50DF11D8EE293
:1009D000808301C0F92E6AE070E0C9010E94B2096B
:1009E000462F242F372F91E09F0DF801EF0DF11DB9
:1009F000805D80832115310569F7611059C0B7FC0E
:100A000063C09920B1F0682D70E080E2292F30E0BA
:100A1000492D50E0461B570B2417350754F49F5FB0
:100A2000F801E20FF31F8083292F30E024173507E8
:100A3000B4F3772031F0F801E90FF11D8DE28083E6
:100A40009F5F21E09150F801E90FF11D80812FB9DE
:100A5000779BFECF8FB9779BFECF80916200886035
:100A60008093620080916200877F80936200F5ED41
:100A7000FA95F1F700009111E5CF61960FB6F89461
:100A8000DEBF0FBECDBFDF91CF911F910F91FF90C1
:100A9000EF90DF90CF90BF90AF909F908F907F901E
:100AA0006F905F900895F12C8E010F5F1F4F93CFD1
:100AB000992009F4BECF682D70E080E3A7CF2227EC
:100AC0003327281B390B5ECFF394F394F801E90F19
:100AD000F11D8DE28083992059F02F2D30E0492DB2
:100AE00050E02417350724F49F2D712C80E297CF16
:100AF0009F2DA7CF08951F920F920FB60F9211242A
:100B00000BB60F922F933F938F939F93AF93BF9307
:100B1000EF93FF93E09171008E2F90E0FC013897E6
:100B2000E135F105B0F0809171008093390284E0E5
:100B300080937400FF91EF91BF91AF919F918F913E
:100B40003F912F910F900BBE0F900FBE0F901F90F3
:100B50001895EA5BFF4F0C94E50980910102E09142
:100B60003A02F0913B02E80FF11D809173008083FF
:100B700084E980937400DECF80913C0280937300FF
:100B80001092010285E880937400D4CF8091010215
:100B900090913D02891760F7E0913A02F0913B0293
:100BA00091E0980F90930102E80FF11D80818093EE
:100BB000730085E880937400BDCF85EA809374004C
:100BC000B9CF2091010280913D0230E090E0019781
:100BD00028173907DCF485EC80937400ABCFE091E3
:100BE0003A02F0913B028091010221E0280F20930C
:100BF0000102E80FF11D80917300808380913D0216
:100C000030E090E00197281739072CF385E88093AE
:100C1000740090CF80917400817008959091740059
:100C200090FDFCCF8E7F80933C0270933B026093DB
:100C30003A0240933D0285EA8093740008959091B2
:100C4000740090FDFCCF816080933C0270933B0266
:100C500060933A0240933D0285EA809374000895C0
:100C60008FEF80937300109271008CE0809370007E
:100C700008955D9BFECF8CB95D9BFECF089590914A
:100C80009B0095FFFCCF80939C0080919B0085FF8B
:100C9000FCCF0895FC019081992349F031965D9B2A
:100CA000FECF9CB95D9BFECF91919111F8CF089535
:100CB000FC012081222371F0319690919B0095FFD9
:100CC000FCCF20939C0090919B0095FFFCCF21913D
:100CD0002111F3CF08959C01FC014491442369F054
:100CE0000196F90124915D9BFECF2CB95D9BFECF4F
:100CF0009C01FC0144914111F3CF08958AB18869A8
:100D00008AB9E5E9F0E080818660808310929000E6
:100D100087E689B90895EAE9F0E0808188618083F7
:100D2000EDE9F0E08081866080831092980087E68C
:100D300080939900089580E89EE302C0019721F016
:100D40005F9BFCCF8CB1089580E0089580E89EE31E
:100D500002C0019739F020919B0027FFFACF8091C4
:100D60009C00089580E0089584E18093E30241E0CF
:100D700063EE72E082E20E940E060E940A06811172
:100D8000FCCF8FEA94E00197F1F700C0000041E04A
:100D90006DE073E082E20E941F060E940A06811144
:100DA000FCCF80910D03089580E28093E3021092BE
:100DB000E40280910001909101019093E5028093FB
:100DC000E6021092E7021092080345E063EE72E03B
:100DD00082E20E940E06809108038823E1F30895C1
:100DE00080E48093E3021092E402809106039091E4
:100DF00007039093E5028093E6021092E7021092B7
:100E0000E8021092080346E063EE72E082E20E947C
:100E10000E06809108038823E1F30895E3EEF2E0E3
:100E200080E4808311828091090390910A03928368
:100E30008383148281E0858346E0BF0182E20E94C1
:100E40000E062FEF87EE93E0215080409040E1F7AF
:100E500000C0000008958091E1029091E20281308B
:100E6000910551F100F1029741F4609109037091ED
:100E70000A038BE093E00E94740A609102028EEDF7
:100E800092E00E94670A81E18093E30241E063EE11
:100E900072E082E20E940E0687ED94E00197F1F77E
:100EA00000C00000089560910001709101018FED74
:100EB00092E00E94740AE1CF6091060370910703EB
:100EC00084EF92E00E94740AD8CF83E28093E30219
:100ED00081E08093E40242E063EE72E082E20E94ED
:100EE0000E060E940A068111FCCF8FEA94E001975A
:100EF000F1F700C0000048E06CEE72E082E20E9470
:100F00001F060E940A068111FCCF089582E2809399
:100F1000E30281E08093E40242E063EE72E082E269
:100F20000E940E060E940A068111FCCF8FEA94E00F
:100F30000197F1F700C0000048E06CEE72E082E239
:100F40000E941F060E940A068111FCCF089582E4C8
:100F50008093E30281E08093E40242E063EE72E07A
:100F600082E20E940E060E940A068111FCCF8FEADF
:100F700094E00197F1F700C0000048E06CEE72E0E9
:100F800082E20C941F0683E48093E30281E0809365
:100F9000E40242E063EE72E082E20E940E060E94EA
:100FA0000A068111FCCF8FEA94E00197F1F700C0A7
:100FB000000048E06CEE72E082E20C941F06E3EE63
:100FC000F2E022E12083118292838383748365831C
:100FD00046E0BF0182E20E940E068FE39CE9019782
:100FE000F1F700C0000008958FED92E00E94610AC1
:100FF00090930101809300018EED92E00E94590AC6
:1010000080930202E3EEF2E081E0808380E5818359
:1010100085E0828343E0BF0182E20E940E062FEF4B
:101020008BED95E0215080409040E1F700C000003A
:1010300061E070E081E090E00C94DF0784EF92E0E3
:101040000E94610A90930703809306038EED92E05D
:101050000E94590A80930202E3EEF2E081E080836D
:1010600081E5818385E0828343E0BF0182E20E94C3
:101070000E062FEF8BED95E0215080409040E1F778
:1010800000C0000061E070E081E090E00C94DF07B8
:101090008BE093E00E94610A90930A038093090316
:1010A0008EED92E00E94590A80930202E3EEF2E094
:1010B00081E0808381E5818385E0828343E0BF0115
:1010C00082E20E940E062FEF8BED95E021508040CA
:1010D0009040E1F700C0000060E070E082E093E340
:1010E0000E94DF0761E071E082E091E30E94DF0788
:1010F00061E070E081E090E00C94DF0780E1809394
:10110000E30241E063EE72E082E20E940E060E947A
:101110000A068111FCCF8FEA94E00197F1F700C035
:10112000000048E066EF72E082E20E941F060E9423
:101130000A068111FCCF82E091E00E9458068BE301
:1011400091E00E94580684E791E00E945806809141
:10115000F7024AE066E672E090E00E94240A86E622
:1011600092E00E94580681E891E00E945806809122
:10117000F8024AE066E672E090E00E94240A86E601
:1011800092E00E94580681E791E00C945806FF9285
:101190000F931F93CF93DF93CDB7DEB7A8970FB60A
:1011A000F894DEBF0FBECDBF8FE891E00E945806D5
:1011B0008FE991E00E9458060CEE12E0F801808160
:1011C00040E166E672E090E00E94240A86E692E042
:1011D0000E94580681E791E00E9458068FEA91E04C
:1011E0000E945806F80181814AE066E672E090E0CC
:1011F0000E94240A86E692E00E94580681E791E068
:101200000E945806F801F3808FEB91E00E94580687
:101210004AE066E672E08F2D90E00E94240A86E69E
:1012200092E00E94580681E791E00E9458068FECF8
:1012300091E00E945806F801828140E1BE016F5F93
:101240007F4F90E00E94240ACE0101960E9458062A
:1012500081E791E00E9458068FED91E00E945806C8
:10126000F801838140E1BE016F5F7F4F90E00E94F3
:10127000240ACE0101960E94580681E791E00E945F
:1012800058068FEE91E00E945806F801848140E1F3
:1012900066E672E090E00E94240A86E692E00E94F0
:1012A000580681E791E00E945806A8960FB6F89478
:1012B000DEBF0FBECDBFDF91CF911F910F91FF9089
:1012C00008950E9430068FEF82B988E084BB78943D
:1012D0001A9A80918B00826C80938B0080918A0097
:1012E0008B6180938A0010928C0080E090E1909353
:1012F00087008093860080E090EF90938100809338
:1013000080008EB589608EBD87B7806187BF80E120
:1013100092E39BBD8ABD10920402109203028AB729
:1013200081688ABF89B7806889BF1F98179A1A9AFF
:101330008FE193E00197F1F700C000001A9890EA5E
:101340009A95F1F717980E94F4070E940A068111F6
:10135000FCCF86E097E290930101809300010E9408
:10136000D406FFCF97FB072E16F4009407D077FD25
:1013700009D00E94EE0907FC05D03EF490958195B6
:101380009F4F0895709561957F4F0895052E97FBA7
:101390001EF400940E94DD0957FD07D00E94020A46
:1013A00007FC03D04EF40C94DD0950954095309520
:1013B00021953F4F4F4F5F4F0895909580957095C1
:1013C00061957F4F8F4F9F4F0895EE0FFF1F0024B1
:1013D000001C0BBE0790F691E02D0994AA1BBB1BC5
:1013E00051E107C0AA1FBB1FA617B70710F0A61B25
:1013F000B70B881F991F5A95A9F780959095BC0146
:10140000CD010895A1E21A2EAA1BBB1BFD010DC040
:10141000AA1FBB1FEE1FFF1FA217B307E407F507A4
:1014200020F0A21BB30BE40BF50B661F771F881F80
:10143000991F1A9469F760957095809590959B0116
:10144000AC01BD01CF010895BB274A3031F4992387
:1014500022F4BDE2909581959F4F0C94300ABB27F2
:10146000FB015527AA27880F991FAA1FA41710F060
:10147000A41B83955051B9F7A05DAA3308F0A95D6C
:10148000A193009779F7B111B1931192CB010C940C
:10149000490ADC01FC01672F71917723E1F732974C
:1014A00004C07C916D9370836291AE17BF07C8F33F
:1014B0000895E199FECF9FBB8EBBE09A99278DB32B
:1014C0000895A8E1B0E042E050E00C947B0A262F9A
:1014D000E199FECF9FBB8EBB2DBB0FB6F894E29A6D
:1014E000E19A0FBE019608950E94670A272F0C9477
:1014F000680ADC01CB01FC01E199FECF06C0FFBB0D
:10150000EEBBE09A31960DB20D9241505040B8F7C3
:061510000895F894FFCFDE
:101516007E27536934373334205265763A20206C5F
:10152600617374203220646967697473206F662062
:1015360070617274206E6F2E20202063686970209F
:1015460072657620202020200A0D002020202020F1
:1015560020202020202020202D2D2D2D2D2D2D2D1D
:101566002D2D2D2D2D2D2D2D2D2D2D2D2D2D2D2DA5
:101576002D2020202D2D2D2D2D2D2D2D20202020F0
:10158600200A0D002020202020202020202020209E
:10159600202020202020202020202020202000463F
:1015A6004D5F5253515F5354415455533A20007383
:1015B600746174757320627974652020203A007214
:1015C600657370312020202020202020203A0066DC
:1015D600726571202020202020202020203A0066DD
:1015E600726571206869676820202020203A0066AD
:1015F600726571206C6F772020202020203A0072BF
:10160600737369202020202020202020203A00000B
:00000001FF
