S00F0000656E636F6465722E7372656335
S11300000C9446000C9465000C9465000C946500F7
S11300100C9465000C9465000C9465000C946500C8
S11300200C9465000C9465000C9465000C946500B8
S11300300C9465000C9465000C9465000C946500A8
S11300400C94B5000C9465000C9465000C94650048
S11300500C9465000C9465000C9465000C94650088
S11300600C9465000C9465000C9465000C94650078
S11300700C9465000C9465000C9465000C94650068
S11300800C9465000C9465000C94650011241FBE4B
S1130090CFEFD0E1DEBFCDBF11E0A0E0B1E0E4E2FC
S11300A0F2E000E00BBF02C007900D92A230B1074E
S11300B0D9F721E0A2E0B1E001C01D92A530B2075A
S11300C0E1F70E94F8000C9410010C94000087B32F
S11300D0876087BB8DB180658DB9709A089580B7AC
S11300E0886080BF87B7816087BF83B7816083BF23
S11300F008958AEA8FB9779BFECF929A82B312BA97
S11301000895611119C091E022E09823822320917F
S113011001019217C9F091111DC0811107C021304E
S1130120F1F02091020121502093020190930101EA
S1130130809300018FEF089594E028E098238223B0
S1130140209101019213E7CF30910001831791F3BD
S1130150992319F3913051F78111E8CFE0CF209121
S113016002012F5F20930201E1CF1F920F920FB67D
S11301700F9211240BB60F922F933F934F935F93DB
S11301806F937F938F939F93AF93BF93EF93FF935B
S11301901E981E9A809104018FB98FB18093030138
S11301A0779BFECF939A939880910301882319F04B
S11301B09FEF9093040160E00E9481008AEA8FB966
S11301C0779BFECF929A82B312BAFF91EF91BF91BF
S11301D0AF919F918F917F916F915F914F913F91DB
S11301E02F910F900BBE0F900FBE0F901F9018957C
S11301F080EF87BB169A81B38C6081BB80B788601F
S113020080BF87B7816087BF83B7816083BF87B3AF
S1130210876087BB8DB180658DB9709A7894FFCF64
S1070220F894FFCF7C
S1050224FFFFD6
S9030000FC
