:100000000C9446000C9458000C9458000C94580022
:100010000C9458000C9458000C9458000C94580000
:100020000C9458000C9458000C9458000C945800F0
:100030000C9458000C9458000C9458000C945800E0
:100040000C94AD000C9458000C9458000C9458007B
:100050000C9458000C9458000C9458000C945800C0
:100060000C9458000C9458000C9458000C945800B0
:100070000C9458000C9458000C9458000C945800A0
:100080000C9458000C9458000C94580011241FBE76
:10009000CFEFD0E1DEBFCDBF21E0A0E0B1E001C0F5
:1000A0001D92A430B207E1F70E94DF000C94F70024
:1000B0000C94000087B3876087BB8DB180658DB9D4
:1000C000709A089580B7886080BF87B7816087BFC6
:1000D00083B7816083BF08958130A1F0882381F0C8
:1000E0009AEA809103018F5F809303018F7339F443
:1000F0009FB906B600FEFDCF929A82B312BA089558
:100100009FE0EFCF90EFEDCF97B317BA982F917094
:100110008270209102019217D9F0992379F0811110
:1001200007C0213079F02091000121502093000177
:1001300090930201809301018FEF08958111F8CF10
:100140002111F1CF209100012F5F20930001F0CF0A
:10015000309101018313E1CFEFCF1F920F920FB6C1
:100160000F9211240BB60F922F933F934F935F93EF
:100170006F937F938F939F93AF93BF93EF93FF936F
:1001800083B113B888B318BA939A82B312BA8FB1F5
:100190000E9484000E946C00FF91EF91BF91AF918B
:1001A0009F918F917F916F915F914F913F912F918F
:1001B0000F900BBE0F900FBE0F901F90189580EF01
:1001C00087BB169A81B38C6081BB80B7886080BF83
:1001D00087B7816087BF83B7816083BF87B387603C
:1001E00087BB8DB180658DB9709A7894FFCFF894F4
:0201F000FFCF3F
:00000001FF
