:100000000C9446000C9465000C9465000C946500FB
:100010000C9465000C9465000C9465000C946500CC
:100020000C9465000C9465000C9465000C946500BC
:100030000C9465000C9465000C9465000C946500AC
:100040000C94BD000C9465000C9465000C94650044
:100050000C9465000C9465000C9465000C9465008C
:100060000C9465000C9465000C9465000C9465007C
:100070000C9465000C9465000C9465000C9465006C
:100080000C9465000C9465000C94650011241FBE4F
:10009000CFEFD0E1DEBFCDBF11E0A0E0B1E0E8E5F9
:1000A000F2E000E00BBF02C007900D92A230B10752
:1000B000D9F721E0A2E0B1E001C01D92A330B20760
:1000C000E1F70E9412010C942A010C94000087B3FE
:1000D000876087BB8DB180658DB9709A089580B7B0
:1000E000886080BF87B7816087BF83B7816083BF27
:1000F0000895813061F0811108C08FE08FB9779B3E
:10010000FECF929A82B312BA08958AEAF7CF80EFAF
:10011000F5CF611119C091E022E09823822320914C
:1001200001019217C9F091111DC0811107C0213042
:10013000F1F02091020121502093020190930101DE
:10014000809300018FEF089594E028E098238223A4
:10015000209101019213E7CF30910001831791F3B1
:10016000992319F3913051F78111E8CFE0CF209115
:1001700002012F5F20930201E1CF1F920F920FB671
:100180000F9211240BB60F922F933F934F935F93CF
:100190006F937F938F939F93AF93BF93CF93DF938F
:1001A000EF93FF931FB8779BFECF939A83B113B859
:1001B0002FEF83EC99E0215080409040E1F700C0A0
:1001C000000082B312BA1E9ACFB160E08C2F0E9459
:1001D0008900D82F61E08C2F0E948900D13001F175
:1001E000D1111CC08FE08FB9779BFECF929A82B35A
:1001F00012BAFF91EF91DF91CF91BF91AF919F9193
:100200008F917F916F915F914F913F912F910F90BF
:100210000BBE0F900FBE0F901F9018958AEAE3CF88
:1002200080EFE1CF80EF87BB169A81B38C6081BBF2
:1002300080B7886080BF87B7816087BF83B78160E0
:1002400083BF87B3876087BB8DB180658DB9709A96
:080250007894FFCFF894FFCF72
:02025800FFFFA6
:00000001FF
