:100000000C9446000C9465000C9465000C946500FB
:100010000C9465000C9465000C9465000C946500CC
:100020000C9465000C9465000C9465000C946500BC
:100030000C9465000C9465000C9465000C946500AC
:100040000C94C6000C9465000C9465000C9465003B
:100050000C9465000C9465000C9465000C9465008C
:100060000C9465000C9465000C9465000C9465007C
:100070000C9465000C9465000C9465000C9465006C
:100080000C9465000C9465000C94650011241FBE4F
:10009000CFEFD0E1DEBFCDBF11E0A0E0B1E0ECE6F4
:1000A000F2E000E00BBF02C007900D92A230B10752
:1000B000D9F721E0A2E0B1E001C01D92A430B2075F
:1000C000E1F70E941C010C9434010C94000087B3EA
:1000D000876087BB8DB180658DB9709A089580B7B0
:1000E000886080BF87B7816087BF83B7816083BF27
:1000F0000895813081F0882339F08AEA80930301E2
:10010000929A82B312BA08958FE080930301929A73
:1001100082B312BA089580EF80930301929A82B35A
:1001200012BA0895611119C091E022E09823822348
:10013000209101019217C9F091111DC0811107C0D2
:100140002130F1F02091020121502093020190937F
:100150000101809300018FEF089594E028E0982337
:100160008223209101019213E7CF30910001831780
:1001700091F3992319F3913051F78111E8CFE0CF32
:10018000209102012F5F20930201E1CF1F920F9275
:100190000FB60F9211240BB60F922F933F934F93EC
:1001A0005F936F937F938F939F93AF93BF93CF93FF
:1001B000DF93EF93FF93809103018FB9939A83B1FB
:1001C00013B82FEF89EF90E0215080409040E1F785
:1001D00000C0000082B312BA1E9ACFB1779BFECF47
:1001E00060E08C2F0E949200D82F61E08C2F0E943B
:1001F0009200D130F9F0DD23D9F08AEA809303012F
:10020000929A82B312BAFF91EF91DF91CF91BF9191
:10021000AF919F918F917F916F915F914F913F919E
:100220002F910F900BBE0F900FBE0F901F9018953F
:100230008FE0E4CF80EFE2CF80EF87BB169A81B3E7
:100240008C6081BB80B7886080BF87B7816087BFC3
:1002500083B7816083BF87B3876087BB8DB18065BB
:0C0260008DB9709A7894FFCFF894FFCF0E
:02026C00FFFF92
:00000001FF
