S0120000786469765F736C6565702E73726563DF
S11300000C9446000C9452000C9450000C94500034
S11300100C9450000C9450000C9450000C9450001C
S11300200C9450000C9450000C9450000C9450000C
S11300300C9450000C9450000C9450000C945000FC
S11300400C9450000C9450000C9450000C945000EC
S11300500C9450000C9450000C9450000C945000DC
S11300600C9450000C9450000C9450000C945000CC
S11300700C9450000C9450000C9450000C945000BC
S11300800C9450000C9450000C94500011241FBE8A
S1130090CFEFD0E1DEBFCDBF0E9464000C947901A4
S11300A00C9400001F920F920FB60F9211248F939D
S11300B08CB78F778CBF85B78F7D85BF8F910F905D
S11300C00FBE0F901F90189582E080936A0091E014
S11300D099BF85B7806385BF1ABA8FEF8BBB87BB87
S11300E018BA14BA85BB11BA82BB12B883B910927C
S11300F0610080936200109264008093650078949C
S113010098BB85E12FEF31EE94E0215030409040D0
S1130110E1F700C000008150A9F78FE78CBF8CB7CE
S113012080688CBF82E088BB8BE02FEF31EE94E0D7
S1130130215030409040E1F700C000008150A9F701
S11301408CB78F778CBF8DE78CBF8CB780688CBFE2
S113015084E088BB8BE02FEF30E792E02150304001
S11301609040E1F700C000008150A9F78CB78F7769
S11301708CBF89E78CBF8CB780688CBF88E088BB54
S11301808BE02FE738E391E0215030409040E1F7D5
S113019000C000008150A9F78CB78F778CBF81E72E
S11301A08CBF8CB780688CBF80E188BB2FE738E3B5
S11301B081E0215030408040E1F700C000009FE71B
S11301C028E331E0915020403040E1F700C00000C6
S11301D08FE798E321E0815090402040E1F700C090
S11301E000003FE788E391E0315080409040E1F720
S11301F000C000002FE738E381E021503040804008
S1130200E1F700C000009FE728E331E0915020406F
S11302103040E1F700C000008CB78F778CBF81E6D7
S11302208CBF8CB780688CBF80E288BB8FE19BEC6D
S11302300197F1F700C000008FE19BEC0197F1F703
S113024000C000008FE19BEC0197F1F700C00000B3
S11302508FE19BEC0197F1F700C000008FE19BEC6C
S11302600197F1F700C000008FE19BEC0197F1F7D3
S113027000C0000080E888BB889518BA91E02FEF91
S113028031EE84E0215030408040E1F700C00000AE
S11302902FEF31EE84E0215030408040E1F700C080
S11302A000002FEF31EE84E0215030408040E1F730
S11302B000C000002FEF31EE84E021503040804038
S11302C0E1F700C000002FEF31EE84E02150304010
S11302D08040E1F700C000002FEF31EE84E02150B0
S11302E030408040E1F700C0000088B3892788BB14
S10902F0C6CFF894FFCF15
S9030000FC
