:100000000C9446000C9458000C9458000C94580022
:100010000C9458000C9458000C9458000C94580000
:100020000C9458000C9458000C9458000C945800F0
:100030000C9458000C9458000C9458000C945800E0
:100040000C9458000C9458000C9458000C945800D0
:100050000C9458000C9458000C9458000C945800C0
:100060000C9458000C9458000C9458000C945800B0
:100070000C9458000C9458000C9458000C945800A0
:100080000C9458000C9458000C94580011241FBE76
:10009000CFEFD0E1DEBFCDBF21E0A0E0B1E001C0F5
:1000A0001D92A031B207E1F70E9479000C94B100D3
:1000B0000C940000AC0190B3FA01EE0FFF1FE0506A
:1000C000FF4F20813181220F331F306E892F90E046
:1000D00002C0959587954A95E2F781709927282B5C
:1000E000392B3183208381E02115304F09F080E0E6
:1000F00008958FEF87BB60B380910001909101015B
:10010000880F991F906E262F217030E0822B932B41
:1001100090930101809300018115904F19F488B3E9
:100120008F5F88BB60B38091020190910301880FBB
:10013000991F906E61FB442740F950E0842B952B6A
:1001400090930301809302018115904F19F488B3B5
:10015000815088BB8FE39FE10197F1F700C0000059
:06016000CACFF894FFCFA6
:00000001FF
