S01100006C6162345F636F64652E73726563B6
S11300000C9446000C9465000C9465000C946500F7
S11300100C9465000C9465000C9465000C946500C8
S11300200C9465000C9465000C9465000C946500B8
S11300300C9465000C9465000C9465000C946500A8
S11300400C9462020C9465000C9465000C94650099
S11300500C9465000C9465000C9465000C94650088
S11300600C9465000C9465000C9465000C94650078
S11300700C9465000C9465000C9465000C94650068
S11300800C9465000C9465000C94650011241FBE4B
S1130090CFEFD0E1DEBFCDBF11E0A0E0B1E0ECEEE8
S11300A0F2E100E00BBF02C007900D92A631B10748
S11300B0D9F721E0A6E1B1E001C01D92A038B20752
S11300C0E1F70E9455080C9474090C940000EFE3C6
S11300D0F1E080EC808389EF818384EA828380EB82
S11300E0838389E9848382E9858382E8868388EF30
S11300F0878380E8808788E981878CEF82878FEF08
S113010083870895E7E3F1E0108280E1818380E250
S1130110828380E3838380E4848380E787830895F4
S1130120AC0199B3FA01EE0FFF1FE55EFE4F20818B
S11301303181220F331F306E892F90E002C09595D4
S113014087954A95E2F781709927282B392B3183BB
S1130150208381E02115304F09F080E00895AC013F
S11301609C01ADECBCEC0E942F0996958795969561
S11301708795969587959C01220F331F880F991FA9
S1130180880F991F880F991F820F931F9A01281BAC
S1130190390B20934B019A0136952795369527956F
S11301A0ABE7B4E10E942F099695879564E6689FB2
S11301B09001699F300D1124CA01821B930B9C018D
S11301C0ADECBCEC0E942F09969587959695879582
S11301D09695879580934C0180913301813009F481
S11301E046C08BE080934D019A013695279536954C
S11301F0279536952795A5ECB0E20E942F09FC01BE
S1130200F295E295EF70EF27FF70EF2728EE33E0C9
S1130210E29FC001E39F900DF29F900D11249A017B
S1130220281B390B3695279536952795ABE7B4E10E
S11302300E942F099695879580934E01E0934F0174
S1130240EBE4F1E083E090E03BE08130910531F0B4
S1130250248121110BC03483009741F00197319719
S113026081309105D9F324812223A9F308958AE0EA
S1130270B9CF90912E018DEC989F812D11248695F4
S1130280869586952AE0829F9019112490934B01BC
S113029080934C01809133018130A9F08BE08093ED
S11302A04D0190912D018DEC989F812D11248695FF
S11302B0869586952AE0829F9019112490934E0189
S11302C080934F0108958AE0EACFCF93DF938FEFB5
S11302D08ABBA7E3B1E0CBE4D1E08D9188BBE9917F
S11302E0F0E0E15CFE4F80818BBB8FEC97E00197DF
S11302F0F1F700C0000091E0AC33B90771F7DF916A
S1130300CF91089587B3876087BB8DB180658DB920
S1130310709A089580B7886080BF87B7816087BF6F
S113032083B7816083BF0895611124C0A1E0B0E068
S1130330E0E0F0E022E091E0982331E009F430E0DD
S1130340822321E009F420E0E050FF4F4081A050D7
S1130350BF4F341719F1911114C08823A1F0411132
S113036014C0809118018F5F809318018FEF308340
S11303702C930895A3E0B0E0E2E0F0E028E094E0FC
S1130380DBCF811110C0413061F38091180181509D
S1130390809318018FEF30832C9308955C9125137B
S11303A0DACF8FEF089541110BC081E090911801CD
S11303B0933041F081951092180130832C93089565
S11303C08FEFF9CF80E0F6CF809135018FB9779B1D
S11303D0FECF929A82B312BA0895CF93DF93CDB72A
S11303E0DEB760970FB6F894DEBF0FBECDBF80E1D5
S11303F0E4E0F1E0DE01119601900D928A95E1F7B7
S113040080913101813049F060960FB6F894DEBFD7
S11304100FBECDBFDF91CF9108950E943505CE0167
S113042001960E94B505F0CF8230E1F198F488235B
S113043081F1813001F5809332018AE090E090935C
S11304402C0180932B019091350182E089278093C0
S113045035010895863081F0873061F490912F0141
S113046081E0892780932F01809135018058809302
S113047035010895089508959091300181E0892708
S1130480809330019091350180E489278093350170
S113049008951092310180913501897F809335014F
S11304A00C94350581E08093320188E592E09093C5
S11304B02C0180932B019091350184E0892780934E
S11304C0350108951F920F920FB60F9211240BB6A7
S11304D00F92DF92EF92FF920F931F932F933F930C
S11304E04F935F936F937F938F939F93AF93BF9338
S11304F0CF93DF93EF93FF9388B3806788BB0CE0BF
S113050010E0DD24DA941ABADBBA9BE1E92E91E01B
S1130510F92EC0E0D0E004C02196C830D10509F11D
S113052099B3F70120813181220F331F306E892F57
S113053090E00C2E02C0959587950A94E2F781709D
S11305409927822B932BF701819391937F01811536
S1130550904F11F78C2F0E9414022196C830D105B8
S1130560F9F60150110979F688B38F7888BBC091E8
S1130570340160E08C2F0E949401D82F61E08C2F0D
S11305800E949401DD2311F0811176C09091300115
S113059020912F01913009F490C0213009F4AFC0AB
S11305A0D13009F472C0813009F469C080911A0114
S11305B08F5F80931A018F7709F044C080913201D4
S11305C0813009F4ABC09091330181E08927809395
S11305D03301809119018F5F8093190199E8899FF4
S11305E0212D11242295269527703CE3239F801901
S11305F01124811127C080912E018F5F80932E01D9
S113060010921901899F912D1124929596959770B6
S1130610939F80191124811115C080912D018F5F42
S113062080932D0110922E019BEA899F912D112414
S113063092959F70F8E19F9F80191124811102C047
S113064010922D01FF91EF91DF91CF91BF91AF9166
S11306509F918F917F916F915F914F913F912F91D6
S11306601F910F91FF90EF90DF900F900BBE0F90B2
S11306700FBE0F901F901895D13009F094CF909130
S1130680300120912F01913021F1213009F08ECFDA
S113069091118CCF80912D018F5F9BEA899F912DC1
S11306A0112492959F70E82F48E1949FE01911243A
S11306B0E11146C010922D0179CF211107C090910C
S11306C02E01915008F442C090932E01D13009F0CC
S11306D06ACF21116BCF80912E018F5F99E8899F9A
S11306E0912D1124929596959770382F2CE3929F13
S11306F030191124311127C010922E0157CF9111B6
S11307004FCF90912D01915018F190932D01D1303C
S113071009F4C0CF813009F049CFBCCF20912B011F
S113072030912C012150310930932C0120932B015D
S1130730232B09F048CF809331011092320143CF2B
S113074080932D0133CF80932E0130CF9BE3BCCF18
S113075097E190932D01DBCF91E0811101C090E0EE
S11307609FB9779BFECF6FB9779BFECF80916200D4
S113077088608093620080916200877F809362002A
S1130780089520913601820F911DFC01808191E032
S11307909FB9779BFECF8FB9779BFECF8091620084
S11307A088608093620080916200877F80936200FA
S11307B0809136018F5F809336018031D9F0803289
S11307C009F0089585ED8A95F1F700001FB8779B2D
S11307D0FECF80E88FB9779BFECF8091620088605E
S11307E08093620080916200877F80936200109200
S11307F036010895F5EDFA95F1F700001FB8779BDF
S1130800FECF80EC8FB9779BFECF80916200886029
S11308108093620080916200877F80936200809160
S11308203601CDCF660F660F660F605C1FB8779BED
S1130830FECF6FB9779BFECF209162002860209392
S1130840620020916200277F2093620025ED2A95A3
S1130850F1F70000FC019C01285F3F4F91E081917A
S11308609FB9779BFECF8FB9779BFECF80916200B3
S113087088608093620080916200877F8093620029
S113088085ED8A95F1F70000E217F30741F7089523
S113089090E4899F600D1124605C1FB8779BFECFA4
S11308A06FB9779BFECF809162008860809362006D
S11308B080916200877F809362000895811113C044
S11308C081E08FB9779BFECF80E38FB9779BFECF12
S11308D08091620088608093620080916200877FCB
S11308E08093620008958436B0F48A3060F591E014
S11308F09FB9779BFECF9DEC899F912D11249695EE
S1130900969596952AE0929F80191124805D8FB95F
S1130910779BFECFDDCF99E2899F912D112492958B
S11309209F70905D21E02FB9779BFECF9FB9779B95
S1130930FECF909162009860909362009091620063
S1130940977F9093620099E2899F912D112492954B
S11309509F70382F24E6929F301911242DEC329F7A
S1130960912D1124969596959695905D21E02FB939
S1130970779BFECF9FB9779BFECF909162009860E2
S11309809093620090916200977F90936200AFCF42
S113099087FF0C945E0491E09FB9779BFECF9DE2A4
S11309A09FB9779BFECF909162009860909362000C
S11309B090916200977F9093620095ED9A95F1F77C
S11309C0000081950C945E041FB8779BFECF8EE0E7
S11309D08FB9779BFECF809162008860809362001C
S11309E080916200877F8093620008951FB8779B8F
S11309F0FECF8CE08FB9779BFECF80916200886038
S1130A008093620080916200877F809362000895E2
S1130A101FB8779BFECF8EE18FB9779BFECF809175
S1130A20620088608093620080916200877F809377
S1130A30620008951FB8779BFECF88E18FB9779B3A
S1130A40FECF809162008860809362008091620092
S1130A50877F809362000895E2E6F0E080818860F9
S1130A6080838081877F808308951FB8779BFECF22
S1130A7081E08FB9779BFECF80916200886080937C
S1130A80620080916200877F809362008FE19CE125
S1130A900197F1F700C0000008951FB8779BFECFBF
S1130AA082E08FB9779BFECF80916200886080934B
S1130AB0620080916200877F809362008FE697E1F5
S1130AC00197F1F700C0000008951FB8779BFECF8F
S1130AD080EC8FB9779BFECF809162008860809311
S1130AE0620080916200877F8093620008951FB83E
S1130AF0779BFECF80E88FB9779BFECF8091620011
S1130B0088608093620080916200877F8093620096
S1130B10089590E131E020E23FB9779BFECF2FB9F1
S1130B20779BFECF80916200886080936200809101
S1130B306200877F8093620085ED8A95F1F700005B
S1130B40915051F7089591E09FB9779BFECF8FB9EB
S1130B50779BFECF809162008860809362008091D1
S1130B606200877F809362000895FC0140E050E0BA
S1130B7060E071E0DF01A40FB51F8C917FB9779B12
S1130B80FECF8FB9779BFECF9091620098609093CF
S1130B90620090916200977F9093620085ED8A9540
S1130BA0F1F700006F5F462F50E0DF010D90002049
S1130BB0E9F79D012E1B3F0B2250310924173507FD
S1130BC0C8F608958FEF99EF0197F1F700C0000080
S1130BD088E0809361001FB8779BFECF80E38FB9D4
S1130BE0779BFECF80916200886080936200809141
S1130BF06200877F809362008FE59DE60197F1F79D
S1130C0000C000001FB8779BFECF80E38FB9779BAD
S1130C10FECF8091620088608093620080916200C0
S1130C20877F809362008FE59DE60197F1F700C00E
S1130C3000001FB8779BFECF80E38FB9779BFECF70
S1130C408091620088608093620080916200877F57
S1130C50809362008FE59DE60197F1F700C00000E4
S1130C601FB8779BFECF88E38FB9779BFECF809127
S1130C70620088608093620080916200877F809325
S1130C8062008FE19EE40197F1F700C000001FB8F5
S1130C90779BFECF88E08FB9779BFECF809162006F
S1130CA088608093620080916200877F80936200F5
S1130CB08FE19EE40197F1F700C000001FB8779B15
S1130CC0FECF81E08FB9779BFECF80916200886070
S1130CD08093620080916200877F809362008FE13D
S1130CE09EE40197F1F700C000001FB8779BFECF88
S1130CF086E08FB9779BFECF8091620088608093F5
S1130D00620080916200877F809362008FE19EE49D
S1130D100197F1F700C000001FB8779BFECF8CE06D
S1130D208FB9779BFECF80916200886080936200C8
S1130D3080916200877F809362008FE19EE4019737
S1130D40F1F700C0000008954F925F926F927F9276
S1130D508F929F92AF92BF92CF92DF92EF92FF92C7
S1130D600F931F93CF93DF93CDB7DEB769970FB679
S1130D70F894DEBF0FBECDBF142F422E5E2C00238D
S1130D8079F06B017C01CC24F7FCC394DD24EE24C0
S1130D90FF240C2D6B017C0197FDA3C0C701B60194
S1130DA0442009F496C09E012F5F3F4F5901490129
S1130DB066246A94640C712C3FEF631A730A6A0CFC
S1130DC07B1C2AE030E040E050E00E941009E62F4E
S1130DD02A8B3B8B4C8B5D8B6A897B898C899D89A3
S1130DE020E32E0FF40121934F016E167F0649F77D
S1130DF099249394940CF501E40DF11D2EE22083C3
S1130E002AE030E040E050E00E941009E62F2A8BEF
S1130E103B8B4C8B5D8B6E8B7F8B888F998F6A8914
S1130E207B898C899D8931E0390DD501A90DB11DCE
S1130E30E05DEC93932E611571058105910501F731
S1130E40112361F051104BC090E2311738F4F501D1
S1130E50E30FF11D90833F5F1313F9CF002331F0AB
S1130E60F501E30FF11D9DE290833F5F21E03150D6
S1130E70F501E30FF11D90812FB9779BFECF9FB948
S1130E80779BFECF9091620098609093620090915E
S1130E906200977F9093620085ED8A95F1F70000D8
S1130EA03111E5CF69960FB6F894DEBF0FBECDBF02
S1130EB0DF91CF911F910F91FF90EF90DF90CF9032
S1130EC0BF90AF909F908F907F906F905F904F9066
S1130ED00895912C9E012F5F3F4F590191CF90E3CC
S1130EE0B4CFF094E094D094C094C11CD11CE11C04
S1130EF0F11C54CF5F926F927F928F929F92AF9228
S1130F00BF92CF92DF92EF92FF920F931F93CF93F2
S1130F10DF93CDB7DEB761970FB6F894DEBF0FBE8F
S1130F20CDBF5C01962E542E622E8B2C881C8824F7
S1130F30881C782C9C0197FD9DC0552009F48EC017
S1130F408E010F5F1F4F7801CC24CA94C50CD12C9D
S1130F508FEFC81AD80AC00ED11E6AE070E0C9012A
S1130F600E94FC08462F242F372F805DF7018193C0
S1130F707F01EC15FD0589F7FF24F394F50CF801C6
S1130F80E50DF11D8EE2808301C0F92E6AE070E068
S1130F90C9010E94FC08462F242F372F91E09F0D92
S1130FA0F801EF0DF11D805D80832115310569F78E
S1130FB0611059C0B7FC63C09920B1F0682D70E08E
S1130FC080E2292F30E0492D50E0461B570B2417AF
S1130FD0350754F49F5FF801E20FF31F8083292F34
S1130FE030E024173507B4F3772031F0F801E90F26
S1130FF0F11D8DE280839F5F21E09150F801E90F9C
S1131000F11D80812FB9779BFECF8FB9779BFECFDF
S11310108091620088608093620080916200877F83
S113102080936200F5EDFA95F1F700009111E5CF98
S113103061960FB6F894DEBF0FBECDBFDF91CF919E
S11310401F910F91FF90EF90DF90CF90BF90AF90E2
S11310509F908F907F906F905F900895F12C8E01F8
S11310600F5F1F4F93CF992009F4BECF682D70E016
S113107080E3A7CF22273327281B390B5ECFF394B5
S1131080F394F801E90FF11D8DE28083992059F062
S11310902F2D30E0492D50E02417350724F49F2DDF
S11310A0712C80E297CF9F2DA7CF80EF87BB169A34
S11310B081B38C6081BBC79880B7886080BF87B7D5
S11310C0816087BF83B7816083BF87B3876087BB35
S11310D08DB180658DB9709A789480EC80933F01CE
S11310E089EF8093400184EA8093410180EB8093EF
S11310F0420189E98093430182E98093440182E8B3
S11311008093450188EF8093460180E880934701EE
S113111088E9809348018CEF809349018FEF809395
S11311204A011092370180E18093380180E2809374
S1131130390180E380933A0180E480933B0180E7A6
S113114080933E010E94E2051DEC0FEF939A83B158
S113115013B81E9A93981FB8779BFECF8FB18093D4
S11311603401809135018FB9779BFECF929A82B377
S113117012BA90912E01919F812D11248695869506
S113118086952AE0829F9019112490934B018093B5
S11311904C0180913301813069F18BE080934D01E2
S11311A090912D01919F812D112486958695869588
S11311B02AE0829F9019112490934E0180934F014D
S11311C00ABBA7E3B1E0CBE4D1E08D9188BBE99100
S11311D0F0E0E15CFE4F80818BBB8FEC97E00197E0
S11311E0F1F700C0000091E0AC33B90771F70E9439
S11311F0ED01ACCF8AE0D2CF97FB072E16F4009412
S113120007D077FD09D00E943E0907FC05D03EF4C3
S1131210909581959F4F0895709561957F4F08959E
S1131220052E97FB1EF400940E94270957FD07D052
S11312300E94520907FC03D04EF40C9427095095E0
S11312404095309521953F4F4F4F5F4F08959095AE
S11312508095709561957F4F8F4F9F4F0895A29F02
S1131260B001B39FC001A39F700D811D1124911D76
S1131270B29F700D811D1124911D0895AA1BBB1BE3
S113128051E107C0AA1FBB1FA617B70710F0A61B82
S1131290B70B881F991F5A95A9F780959095BC01A3
S11312A0CD010895A1E21A2EAA1BBB1BFD010DC09E
S11312B0AA1FBB1FEE1FFF1FA217B307E407F50702
S11312C020F0A21BB30BE40BF50B661F771F881FDE
S11312D0991F1A9469F760957095809590959B0174
S10F12E0AC01BD01CF010895F894FFCFCC
S11312ECFFFFFFFF2020202020414C41524D2020A5
S10912FC20202020000068
S9030000FC
