:100000000C9446000C9458000C9458000C94580022
:100010000C9458000C9458000C9458000C94580000
:100020000C9458000C9458000C9458000C945800F0
:100030000C9458000C9458000C9458000C945A00DE
:100040000C9458000C9458000C9458000C945800D0
:100050000C9458000C9458000C9458000C945800C0
:100060000C9458000C9458000C9458000C945800B0
:100070000C9458000C9458000C9458000C945800A0
:100080000C9458000C9458000C94580011241FBE76
:10009000CFEFD0E1DEBFCDBF21E0A0E0B1E001C0F5
:1000A0001D92A130B207E1F70E9478000C949300F2
:1000B0000C9400001F920F920FB60F9211248F9391
:1000C000809100018F5F809300018F910F900FBE90
:1000D0000F901F90189580B7886080BF87B78260A7
:1000E00087BF83B7896083BF81B78F6781BF08955A
:1000F0008FEF87BB80B7886080BF87B7826087BF7C
:1001000083B7896083BF81B78F6781BF789410926E
:100110000001809100018F3FE1F788B38F5F88BBBA
:0A01200010920001F6CFF894FFCF13
:00000001FF
