S00C00006D61696E2E7372656373
S11300000C9414010C9426010C9426010C942601E2
S11300100C9426010C9426010C9426010C942601C0
S11300200C9426010C9426010C9426010C942601B0
S11300300C9426010C9426010C9426010C942601A0
S11300400C9426010C9426010C9426010C94260190
S11300500C9426010C9426010C9426010C94260180
S11300600C9426010C9426010C9426010C94260170
S11300700C9426010C9426010C9426010C94260160
S11300800C9426010C94DA050C9426011B06F20547
S1130090F205F205F205F205F205F2051B06F2057A
S11300A0F205F205F205F205F205F2052506F20560
S11300B0F205F205F205F205F205F205F205F20584
S11300C0F205F205F205F205F205F2052506F20540
S11300D0F205F205F205F205F205F205F205F20564
S11300E0F205F205F205F205F205F2053C06F20509
S11300F0F205F205F205F205F205F2054006F205F5
S1130100F205F205F205F205F205F205F205F20533
S1130110F205F205F205F205F205F2054E06F205C6
S1130120F205F205F205F205F205F2050C060040AF
S11301307A10F35A00A0724E18090010A5D4E800F2
S113014000E87648170000E40B54020000CA9A3B0A
S1130150000000E1F5050000809698000000404290
S11301600F000000A086010000001027000000001E
S1130170E803000000006400000000000A00000022
S113018000000100000000002C76D888DC674F08CE
S113019023DFC1DFAE59E1B1B796E5E3E453C63AD4
S11301A0E651997696E8E6C28426EB898C9B62ED4B
S11301B0407C6FFCEFBC9C9F40F2BAA56FA5F49005
S11301C0055A2AF75C936B6CF9676DC11BFCE0E47C
S11301D00D47FEF520E6B500D0ED902E03009435D2
S11301E077050080841E080000204E0A000000C825
S11301F00C333333330F986E12831141EF8D211476
S1130200893BE65516CFFEE6DB18D1844B381BF745
S11302107C1D901DA4BBE424203284725E228100E4
S1130220C9F124ECA1E53D2711241FBECFEFD0E195
S1130230DEBFCDBF22E0A0E0B1E001C01D92A2303C
S1130240B207E1F70E9413070C94700C0C940000A1
S113025087B3876087BB80E58DB981E08EB9089547
S113026091E0811101C090E09FB9779BFECF6FB9F7
S1130270779BFECF809162008860809362008091BA
S11302806200877F80936200089520910101820FAC
S1130290911DFC01808191E09FB9779BFECF8FB9BE
S11302A0779BFECF8091620088608093620080918A
S11302B06200877F80936200809101018F5F809349
S11302C001018031D9F0803209F0089585ED8A95D5
S11302D0F1F700001FB8779BFECF80E88FB9779BBA
S11302E0FECF8091620088608093620080916200FA
S11302F0877F80936200109201010895F5EDFA95CD
S1130300F1F700001FB8779BFECF80EC8FB9779B85
S1130310FECF8091620088608093620080916200C9
S1130320877F8093620080910101CDCF660F660FB5
S1130330660F605C1FB8779BFECF6FB9779BFECFCB
S11303402091620028602093620020916200277F40
S11303502093620025ED2A95F1F70000FC019C0131
S1130360285F3F4F91E081919FB9779BFECF8FB972
S1130370779BFECF809162008860809362008091B9
S11303806200877F8093620085ED8A95F1F7000013
S1130390E217F30741F7089590E4899F600D112453
S11303A0605C1FB8779BFECF6FB9779BFECF8091BF
S11303B0620088608093620080916200877F8093EE
S11303C062000895811113C081E08FB9779BFECF3D
S11303D080E38FB9779BFECF809162008860809321
S11303E0620080916200877F809362000895843662
S11303F0B0F48A3060F591E09FB9779BFECF9DEC15
S1130400899F912D11249695969596952AE0929F11
S113041080191124805D8FB9779BFECFDDCF99E2DF
S1130420899F912D112492959F70905D21E02FB9A1
S1130430779BFECF9FB9779BFECF90916200986027
S11304409093620090916200977F9093620099E28A
S1130450899F912D112492959F70382F24E6929FA5
S1130460301911242DEC329F912D112496959695D7
S11304709695905D21E02FB9779BFECF9FB9779B2E
S1130480FECF909162009860909362009091620018
S1130490977F90936200AFCF87FF0C94E20191E0C5
S11304A09FB9779BFECF9DE29FB9779BFECF90913A
S11304B0620098609093620090916200977F90939D
S11304C0620095ED9A95F1F7000081950C94E20194
S11304D01FB8779BFECF8EE08FB9779BFECF8091BC
S11304E0620088608093620080916200877F8093BD
S11304F0620008951FB8779BFECF8CE08FB9779B7D
S1130500FECF8091620088608093620080916200D7
S1130510877F8093620008951FB8779BFECF8EE19A
S11305208FB9779BFECF80916200886080936200D0
S113053080916200877F8093620008951FB8779B43
S1130540FECF88E18FB9779BFECF809162008860EF
S11305508093620080916200877F80936200089597
S1130560E2E6F0E08081886080838081877F8083F9
S113057008951FB8779BFECF81E08FB9779BFECF9C
S11305808091620088608093620080916200877F1E
S1130590809362008FE19CE10197F1F700C00000B5
S11305A008951FB8779BFECF82E08FB9779BFECF6B
S11305B08091620088608093620080916200877FEE
S11305C0809362008FE697E10197F1F700C0000085
S11305D008951FB8779BFECF80EC8FB9779BFECF31
S11305E08091620088608093620080916200877FBE
S11305F08093620008951FB8779BFECF80E88FB97F
S1130600779BFECF80916200886080936200809126
S11306106200877F80936200089590E131E020E2D8
S11306203FB9779BFECF2FB9779BFECF80916200B5
S113063088608093620080916200877F809362006B
S113064085ED8A95F1F70000915051F7089591E0F6
S11306509FB9779BFECF8FB9779BFECF80916200C5
S113066088608093620080916200877F809362003B
S11306700895FC0140E050E060E071E0DF01A40F68
S1130680B51F8C917FB9779BFECF8FB9779BFECF37
S11306909091620098609093620090916200977FBD
S11306A09093620085ED8A95F1F700006F5F462F05
S11306B050E0DF010D900020E9F79D012E1B3F0B58
S11306C02250310924173507C8F608958FEF99EFA2
S11306D00197F1F700C0000088E0809361001FB823
S11306E0779BFECF80E38FB9779BFECF809162002A
S11306F088608093620080916200877F80936200AB
S11307008FE59DE60197F1F700C000001FB8779BC5
S1130710FECF80E38FB9779BFECF80916200886023
S11307208093620080916200877F809362008FE5EE
S11307309DE60197F1F700C000001FB8779BFECF3C
S113074080E38FB9779BFECF8091620088608093AD
S1130750620080916200877F809362008FE59DE64E
S11307600197F1F700C000001FB8779BFECF88E324
S11307708FB9779BFECF809162008860809362007E
S113078080916200877F809362008FE19EE40197ED
S1130790F1F700C000001FB8779BFECF88E08FB947
S11307A0779BFECF80916200886080936200809185
S11307B06200877F809362008FE19EE40197F1F7E6
S11307C000C000001FB8779BFECF81E08FB9779BF4
S11307D0FECF809162008860809362008091620005
S11307E0877F809362008FE19EE40197F1F700C058
S11307F000001FB8779BFECF86E08FB9779BFECFB2
S11308008091620088608093620080916200877F9B
S1130810809362008FE19EE40197F1F700C000002D
S11308201FB8779BFECF8CE08FB9779BFECF80916A
S1130830620088608093620080916200877F809369
S113084062008FE19EE40197F1F700C00000089573
S11308504F925F926F927F928F929F92AF92BF92CC
S1130860CF92DF92EF92FF920F931F93CF93DF9378
S1130870CDB7DEB769970FB6F894DEBF0FBECDBF14
S1130880142F422E5E2C002379F06B017C01CC24C2
S1130890F7FCC394DD24EE24FF240C2D6B017C01B2
S11308A097FDA3C0C701B601442009F496C09E0178
S11308B02F5F3F4F5901490166246A94640C712CDF
S11308C03FEF631A730A6A0C7B1C2AE030E040E0B5
S11308D050E00E94C207E62F2A8B3B8B4C8B5D8B2A
S11308E06A897B898C899D8920E32E0FF4012193E9
S11308F04F016E167F0649F799249394940CF501E1
S1130900E40DF11D2EE220832AE030E040E050E0C7
S11309100E94C207E62F2A8B3B8B4C8B5D8B6E8B20
S11309207F8B888F998F6A897B898C899D8931E037
S1130930390DD501A90DB11DE05DEC93932E611520
S113094071058105910501F7112361F051104BC028
S113095090E2311738F4F501E30FF11D90833F5F06
S11309601313F9CF002331F0F501E30FF11D9DE2DC
S113097090833F5F21E03150F501E30FF11D908139
S11309802FB9779BFECF9FB9779BFECF90916200E2
S113099098609093620090916200977F90936200B8
S11309A085ED8A95F1F700003111E5CF69960FB610
S11309B0F894DEBF0FBECDBFDF91CF911F910F9191
S11309C0FF90EF90DF90CF90BF90AF909F908F906B
S11309D07F906F905F904F900895912C9E012F5FB0
S11309E03F4F590191CF90E3B4CFF094E094D09469
S11309F0C094C11CD11CE11CF11C54CF5F926F92B6
S1130A007F928F929F92AF92BF92CF92DF92EF929A
S1130A10FF920F931F93CF93DF93CDB7DEB7619708
S1130A200FB6F894DEBF0FBECDBF5C01962E542ED8
S1130A30622E8B2C881C8824881C782C9C0197FDA2
S1130A409DC0552009F48EC08E010F5F1F4F7801A1
S1130A50CC24CA94C50CD12C8FEFC81AD80AC00E66
S1130A60D11E6AE070E0C9010E94AE07462F242F10
S1130A70372F805DF70181937F01EC15FD0589F720
S1130A80FF24F394F50CF801E50DF11D8EE280834B
S1130A9001C0F92E6AE070E0C9010E94AE07462F3A
S1130AA0242F372F91E09F0DF801EF0DF11D805D8C
S1130AB080832115310569F7611059C0B7FC63C003
S1130AC09920B1F0682D70E080E2292F30E0492DA3
S1130AD050E0461B570B2417350754F49F5FF80169
S1130AE0E20FF31F8083292F30E024173507B4F376
S1130AF0772031F0F801E90FF11D8DE280839F5FCB
S1130B0021E09150F801E90FF11D80812FB9779B05
S1130B10FECF8FB9779BFECF80916200886080936F
S1130B20620080916200877F80936200F5EDFA9500
S1130B30F1F700009111E5CF61960FB6F894DEBF8E
S1130B400FBECDBFDF91CF911F910F91FF90EF901A
S1130B50DF90CF90BF90AF909F908F907F906F90D9
S1130B605F900895F12C8E010F5F1F4F93CF992052
S1130B7009F4BECF682D70E080E3A7CF2227332786
S1130B80281B390B5ECFF394F394F801E90FF11DA0
S1130B908DE28083992059F02F2D30E0492D50E0CB
S1130BA02417350724F49F2D712C80E297CF9F2DB5
S1130BB0A7CF08951F920F920FB60F9211240BB670
S1130BC00F922F933F938F939F93AF93BF93EF9382
S1130BD0FF93E09171008E2F90E0FC013897E1358E
S1130BE0F105B0F08091710080935D0184E0809301
S1130BF07400FF91EF91BF91AF919F918F913F91BD
S1130C002F910F900BBE0F900FBE0F901F90189551
S1130C10EA5BFF4F0C94E10780910201E0915E01D1
S1130C20F0915F01E80FF11D80917300808384E9E6
S1130C3080937400DECF80916001809373001092E2
S1130C40020185E880937400D4CF809102019091D1
S1130C506101891760F7E0915E01F0915F0191E015
S1130C60980F90930201E80FF11D80818093730027
S1130C7085E880937400BDCF85EA80937400B9CF72
S1130C80209102018091610130E090E001972817E2
S1130C903907DCF485EC80937400ABCFE0915E01FE
S1130CA0F0915F018091020121E0280F209302015D
S1130CB0E80FF11D8091730080838091610130E021
S1130CC090E00197281739072CF385E88093740086
S1130CD090CF80917400817008959091740090FD7C
S1130CE0FCCF8E7F8093600170935F0160935E01FF
S1130CF04093610185EA8093740008959091740093
S1130D0090FDFCCF81608093600170935F016093DC
S1130D105E014093610185EA8093740008958FEF2A
S1130D2080937300109271008CE08093700008959A
S1130D305D9BFECF8CB95D9BFECF089590919B0087
S1130D4095FFFCCF80939C0080919B0085FFFCCF96
S1130D500895FC019081992349F031965D9BFECF63
S1130D609CB95D9BFECF91919111F8CF0895FC0140
S1130D702081222371F0319690919B0095FFFCCF46
S1130D8020939C0090919B0095FFFCCF2191211111
S1130D90F3CF08959C01FC014491442369F001962A
S1130DA0F90124915D9BFECF2CB95D9BFECF9C0184
S1130DB0FC0144914111F3CF08958AB188698AB93D
S1130DC0E5E9F0E08081866080831092900087E6F8
S1130DD089B90895EAE9F0E0808188618083EDE9CA
S1130DE0F0E08081866080831092980087E680938B
S1130DF09900089580E89EE302C0019721F05F9B6B
S1130E00FCCF8CB1089580E0089580E89EE302C091
S1130E10019739F020919B0027FFFACF80919C0025
S1130E20089580E0089587B3876087BB80E58DB916
S1130E3081E08EB90E948F060E94DD060E9466033F
S1130E4078941092590142E069E571E080E90E94CA
S1130E506D068FE39FE10197F1F700C000000E9447
S1130E60B902C9E2D1E083E4C82E80E2D82E96E428
S1130E70E92EF12C9FEF23ED80E391502040804038
S1130E80E1F700C000000E94B90242E06BE571E0A6
S1130E9080E90E947E068FE39FE10197F1F700C08D
S1130EA0000060915B0170915C01762767277627CB
S1130EB0072E000C880B990B0E94010920E030E0FA
S1130EC040E85BE30E948D094B015C0104E011E002
S1130ED021E040E00E94FA0920E030E040E151E4E2
S1130EE0C501B4010E948D0920E030E040EA50E4DD
S1130EF00E948D0820E030E040E052E40E94210886
S1130F0004E111E021E040E00E94FA0964E071E0AC
S1130F1089E291E00E941A0AFE0101900020E9F79B
S1130F203197CF0189529140D182C082B801855D49
S1130F309E4F0E941A0AFE0101900020E9F73197A2
S1130F40F182E08289E291E00E94390389E291E032
S1130F500E94A90680E00E9498068CCF97FB072E7A
S1130F6016F4009407D077FD09D00E94EA0707FC25
S1130F7005D03EF4909581959F4F089570956195A5
S1130F807F4F0895052E97FB1EF400940E94D90705
S1130F9057FD07D00E94FE0707FC03D04EF40C94C3
S1130FA0D90750954095309521953F4F4F4F5F4F4E
S1130FB0089590958095709561957F4F8F4F9F4FC1
S1130FC00895EE0FFF1F0024001C0BBE0790F6913E
S1130FD0E02D0994AA1BBB1B51E107C0AA1FBB1F2C
S1130FE0A617B70710F0A61BB70B881F991F5A95B1
S1130FF0A9F780959095BC01CD010895A1E21A2E20
S1131000AA1BBB1BFD010DC0AA1FBB1FEE1FFF1FA8
S1131010A217B307E407F50720F0A21BB30BE40BF8
S1131020F50B661F771F881F991F1A9469F760953F
S11310307095809590959B01AC01BD01CF010895F9
S11310405058BB27AA270E9438080C9453090E94C1
S1131050450938F00E944C0920F039F49F3F19F4F7
S113106026F40C9442090EF4E095E7FB0C943C0939
S1131070E92F0E94640958F3BA17620773078407BB
S1131080950720F079F4A6F50C9486090EF4E09502
S11310900B2EBA2FA02D0B01B90190010C01CA012E
S11310A0A0011124FF27591B99F0593F50F4503ED9
S11310B068F11A16F040A22F232F342F4427585FCB
S11310C0F3CF469537952795A795F0405395C9F7E3
S11310D07EF41F16BA0B620B730B840BBAF091509B
S11310E0A1F0FF0FBB1F661F771F881FC2F70EC03A
S11310F0BA0F621F731F841F48F48795779567950D
S1131100B795F7959E3F08F0B0CF9395880F08F0F8
S11311109927EE0F9795879508950E94A1080C943E
S113112053090E944C0958F00E94450940F029F4E3
S11311305F3F29F00C943C0951110C9487090C94DD
S113114042090E94640968F39923B1F3552391F38A
S1131150951B550BBB27AA2762177307840738F022
S11311609F5F5F4F220F331F441FAA1FA9F335D07F
S11311700E2E3AF0E0E832D091505040E695001C33
S1131180CAF72BD0FE2F29D0660F771F881FBB1FED
S1131190261737074807AB07B0E809F0BB0B802DCB
S11311A0BF01FF2793585F4F3AF09E3F510578F0F7
S11311B00C943C090C9487095F3FE4F3983ED4F304
S11311C0869577956795B795F7959F5FC9F7880FCB
S11311D0911D9695879597F90895E1E0660F771F1D
S11311E0881FBB1F621773078407BA0720F0621BAE
S11311F0730B840BBA0BEE1F88F7E0950895E894FF
S113120009C097FB3EF490958095709561957F4F4A
S11312108F4F9F4F9923A9F0F92F96E9BB279395F8
S1131220F695879577956795B795F111F8CFFAF408
S1131230BB0F11F460FF1BC06F5F7F4F8F4F9F4F39
S113124016C0882311F096E911C0772321F09EE897
S1131250872F762F05C0662371F096E8862F70E0FD
S113126060E02AF09A95660F771F881FDAF7880FD7
S11312709695879597F9089597F99F6780E870E0A8
S113128060E008959FEF80EC089500240A941616F8
S1131290170618060906089500240A941216130660
S11312A0140605060895092E0394000C11F48823EE
S11312B052F0BB0F40F4BF2B11F460FF04C06F5F0A
S11312C07F4F8F4F9F4F089557FD9058440F551FE0
S11312D059F05F3F71F04795880F97FB991F61F0B4
S11312E09F3F79F087950895121613061406551F2B
S11312F0F2CF4695F1DF08C0161617061806991F97
S1131300F1CF86957105610508940895E894BB278B
S113131066277727CB0197F908950E94A0090C94BA
S113132053090E94450938F00E944C0920F0952386
S113133011F00C943C090C94420911240C94870973
S11313400E94640970F3959FC1F3950F50E0551FF7
S1131350629FF001729FBB27F00DB11D639FAA2706
S1131360F00DB11DAA1F649F6627B00DA11D661F55
S1131370829F2227B00DA11D621F739FB00DA11D76
S1131380621F839FA00D611D221F749F3327A00D30
S1131390611D231F849F600D211D822F762F6A2FCC
S11313A011249F5750409AF0F1F088234AF0EE0F31
S11313B0FF1FBB1F661F771F881F91505040A9F75E
S11313C09E3F510580F00C943C090C9487095F3FC3
S11313D0E4F3983ED4F3869577956795B795F7959A
S11313E0E7959F5FC1F7FE2B880F911D9695879512
S11313F097F90895EF920F931F93CF93DF93E8012A
S113140047FD02C034E001C034E1042E000C550B4A
S113141057FF03C0519541955109E32E022F242F04
S1131420AE010E94210ACE01DF91CF911F910F914D
S1131430EF900895FB01DC0101900D920020E1F78B
S113144008958F929F92AF92BF92CF92DF92EF92C4
S1131450FF920F931F93CF93DF93CDB7DEB72997F6
S11314600FB6F894DEBF0FBECDBF6A01122FB02EA7
S11314702BE3201720F0FF24F394F00E02C02CE39A
S1131480F22E0F2D27E0AE014F5F5F4F0E94980BA5
S1131490BC014981842F8970813031F0E1FC06C0A0
S11314A0E0FE06C090E205C09DE203C09BE201C0DD
S11314B090E05E2D507143FF3CC0911102C083E067
S11314C001C084E0811718F4212F281B01C020E0FB
S11314D051110BC0F601822F30E2882319F03193A9
S11314E08150FBCFC20ED11C20E0992329F0D601F4
S11314F09C93F60131966F01C6010396E2FE0AC081
S11315003EE4D6013C9341E411964C931197129614
S11315103C9306C03EE6F601308341E641833283C4
S1131520FC01322F40E2332309F442C0419331508D
S1131530FACF42FF44C0911102C083E001C084E0AD
S1131540811718F4212F281B01C020E051110BC072
S1131550F601822F30E2882319F031938150FBCFBA
S1131560C20ED11C20E0992329F0D6019C93F601E8
S113157031966F01C6010396E2FE0BC039E4D60131
S11315803C933EE411963C93119736E412963C93B7
S113159007C039E6F60130833EE6318336E632830E
S11315A0FC01322F40E2332319F041933150FBCF39
S11315B0FC01E20FF11D10828EEF9FEFA6C021E027
S11315C030E0911102C020E030E0161617061CF43A
S11315D0FB01319602C0E1E0F0E02E0F3F1FBB207B
S11315E021F0EB2DF0E0319602C0E0E0F0E02E0FA8
S11315F03F1FE12FF0E02E173F071CF4121B212F91
S113160001C020E08E2D887159F4F601822F30E25A
S1131610882319F031938150FBCFC20ED11C20E0F6
S1131620992329F0D6019C93F60131966F0151114B
S11316300BC0F601822F90E3882319F09193815017
S1131640FBCFC20ED11C20E00F2D060F9A81342F40
S1131650307144FF03C0913309F40150101624F48F
S1131660093018F008E001C001E0AB0177FF02C0C7
S113167040E050E0FB01E41BF50BA1E0B0E0AC0F4F
S1131680BD1FEA0FFB1F8EE2A82E4B01801A9108A2
S11316900B2D10E01195019511094F3FBFEF5B072A
S11316A021F4D601AC9211966D01641775072CF0E4
S11316B08416950614F4818101C080E341505109D8
S11316C03196D60111967D014017510724F0D601B9
S11316D08C936701E2CF6417750739F4963320F4CD
S11316E0953319F4311101C081E3F6018083F701C8
S11316F0822F90E2882319F091938150FBCFF70158
S1131700E20FF11D108280E090E029960FB6F89464
S1131710DEBF0FBECDBFDF91CF911F910F91FF9020
S1131720EF90DF90CF90BF90AF909F908F900895EF
S1131730283008F027E03327DA01990F311D87FD9F
S1131740916000966105710539F432602E5F3D9316
S113175030E32A95E1F708959F3F30F08038710512
S1131760610509F03C5F3C5F3D93913008F080686F
S1131770911DDF93CF931F930F93FF92EF92192F35
S1131780987F9695E92F96959695E90FFF27E85748
S1131790FE4F99273327EE24FF24A701E701059084
S11317A00894079428F4360FE71EF81E491F511DAC
S11317B0660F771F881F991F0694A1F70590079459
S11317C028F4E70EF81E491F561FC11D770F881F06
S11317D0991F661F0694A1F70590079428F4F80E44
S11317E0491F561FC71FD11D880F991F661F771FDA
S11317F00694A1F70590079420F4490F561FC71FBC
S1131800D81F990F661F771F881F0694A9F7849124
S11318101095177041F0D695C79557954795F7944D
S1131820E7941A95C1F7EEE2F1E0689415901591EA
S113183035916591959105907FE27395E118F10AD0
S1131840430B560BC90BD009C0F7E10CF11E431F23
S1131850561FC91FD01D7EF4703311F48A95E6CF4C
S1131860E894015030F0080F0AF40027021708F436
S1131870202F2395022F7A3328F079E37D932A953C
S1131880E9F710C07D932A9589F606949795679594
S1131890379517951794E118F10A430B560BC90BAA
S11318A0D00998F023957E9173957A3308F070E30C
S11318B07C932013B8F77E9170617D9330F083950B
S11318C071E37D9370E32A95E1F71124EF90FF9083
S11318D00F911F91CF91DF91992787FD90950895DE
S10718E0F894FFCFA6
S9030000FC
