S01D00006261725F67726170685F6E6F696E74735F736B656C2E7372656359
S11300000C9446000C9450000C9450000C94500036
S11300100C9450000C9450000C9450000C9450001C
S11300200C9450000C9450000C9450000C9450000C
S11300300C9450000C9450000C9450000C945000FC
S11300400C9450000C9450000C9450000C945000EC
S11300500C9450000C9450000C9450000C945000DC
S11300600C9450000C9450000C9450000C945000CC
S11300700C9450000C9450000C9450000C945000BC
S11300800C9450000C9450000C94500011241FBE8A
S1130090CFEFD0E1DEBFCDBF0E945A000C949B008D
S11300A00C94000087B3876087BB8DB180658DB9E0
S11300B0709A089587B3876087BB8DB180658DB9C9
S11300C0709A81E08FB9779BFECFC09A98B318BA23
S11300D0880F803871F12FEF31EE94E021503040D9
S11300E09040E1F700C000002FEF31EE94E0215082
S11300F030409040E1F700C000002FEF31EE94E073
S1130100215030409040E1F700C000002FEF31EE65
S113011094E0215030409040E1F700C000002FEF00
S113012031EE94E0215030409040E1F700C00000EF
S10D0130C9CF81E0D0CFF894FFCFCF
S9030000FC
