S01100006C6162335F636F64652E73726563B7
S11300000C9446000C9465000C9465000C946500F7
S11300100C9465000C9465000C9465000C946500C8
S11300200C9465000C9465000C9465000C946500B8
S11300300C9465000C9465000C9465000C946500A8
S11300400C94C4010C9465000C9465000C94650038
S11300500C9465000C9465000C9465000C94650088
S11300600C9465000C9465000C9465000C94650078
S11300700C9465000C9465000C9465000C94650068
S11300800C9465000C9465000C94650011241FBE4B
S1130090CFEFD0E1DEBFCDBF11E0A0E0B1E0E2EDF3
S11300A0F5E000E00BBF02C007900D92A430B10749
S11300B0D9F721E0A4E0B1E001C01D92A433B20756
S11300C0E1F70E9463020C94E7020C940000E3E25F
S11300D0F1E080EC808389EF818384EA828380EB82
S11300E0838389E9848382E9858382E8868388EF30
S11300F0878380E8808788E981878CEF82878FEF08
S113010083870895EBE1F1E0108280E1818380E24E
S1130110828380E3838380E4848380E787830895F4
S1130120AC0199B3FA01EE0FFF1FE85FFE4F208187
S11301303181220F331F306E892F90E002C09595D4
S113014087954A95E2F781709927282B392B3183BB
S1130150208381E02115304F09F080E00895AC013F
S11301609C01ADECBCEC0E94D802969587959695BF
S11301708795969587959C01220F331F880F991FA9
S1130180880F991F880F991F820F931F9A01281BAC
S1130190390B20932F019A0136952795369527958B
S11301A0ABE7B4E10E94D8029695879564E6689F10
S11301B09001699F300D1124CA01821B930B9C018D
S11301C0ADECBCEC0E94D8029695879596958795E0
S11301D096958795809330018BE0809331019A0145
S11301E0369527953695279536952795A5ECB0E253
S11301F00E94D802FC01F295E295EF70EF27FF70A0
S1130200EF2728EE33E0E29FC001E39F900DF29FB9
S1130210900D11249A01281B390B36952795369594
S11302202795ABE7B4E10E94D80296958795809311
S11302303201E0933301EFE2F1E083E090E03BE050
S11302408130910531F0248121110BC03483009752
S113025041F00197319781309105D9F3248122230C
S1130260A9F30895CF93DF938FEF8ABBABE1B1E09D
S1130270CFE2D1E08D9188BBE991F0E0ED5DFE4FD6
S113028080818BBB8FEC97E00197F1F700C00000F1
S113029091E0A032B90771F7DF91CF91089587B348
S11302A0876087BB8DB180658DB9709A089580B7DA
S11302B0886080BF87B7816087BF83B7816083BF51
S11302C00895662319F194E038E0982321E009F4B5
S11302D020E0832331E009F430E070E0FB01E050DA
S11302E0FF4F4081DB01AF5FBE4F2417F9F091113E
S11302F010C0882381F0442381F08091060181504D
S1130300809306018FEF20833C93089591E032E0BF
S1130310DCCF811110C0413081F7809106018F5FDD
S1130320809306018FEF20833C9308955C913513ED
S1130330DECF8FEF0895411104C080910601833010
S113034021F08FEF10920601DECF809119018130E8
S113035031F080911801813061F080E0F3CF809119
S11303600401909105010297909305018093040183
S1130370F0CF8091040190910501049790930501B9
S11303808093040180E0DECF1F920F920FB60F928C
S113039011240BB60F922F933F934F935F936F9358
S11303A07F938F939F93AF93BF93CF93DF93EF93F9
S11303B0FF9388B3806788BB4CE050E020910A012A
S11303C030910B0180910C0190910D01CFEFB1E0C0
S11303D0D2E01ABACBBBA9B3220F331F306EA1FBF4
S11303E0662760F970E0262B372B30930B0120939E
S11303F00A012115A0EF3A0751F4A0911901AB2786
S1130400A0931901A0911A01AB27A0931A01A9B3D3
S1130410880F991F906EA2FBEE27E0F9F0E08E2B77
S11304209F2B90930D0180930C018115A0EF9A07E7
S113043051F4A0911801AB27A0931801A0911A01BF
S1130440AD27A0931A014150510919F688B38F784A
S113045088BB1E981E9A1FB88FB180930701779BA3
S1130460FECF939A939880911A018FB9779BFECF10
S1130470929A82B312BAC091070160E08C2F0E9455
S1130480610161E08C2F0E946101FF91EF91DF9186
S1130490CF91BF91AF919F918F917F916F915F9118
S11304A04F913F912F910F900BBE0F900FBE0F9065
S11304B01F90189580911A018FB9779BFECF929A5D
S11304C082B312BA089580EF87BB169A81B38C6009
S11304D081BBC79880B7886080BF87B7816087BFBA
S11304E083B7816083BF87B3876087BB8DB1806525
S11304F08DB9709A789480EC8093230189EF80936E
S1130500240184EA8093250180EB8093260189E904
S11305108093270182E98093280182E8809329014E
S113052088EF80932A0180E880932B0188E98093E7
S11305302C018CEF80932D018FEF80932E0110926C
S11305401B0180E180931C0180E280931D0180E304
S113055080931E0180E480931F0180E78093220131
S11305601FEF8091040190910501811524E0920709
S113057028F0945090930501809304010E94AF00E9
S11305801ABBABE1B1E0CFE2D1E08D9188BBE99138
S1130590F0E0ED5DFE4F80818BBB8FEC97E001971F
S11305A0F1F700C0000091E0A032B90771F7D9CF8C
S11305B0A29FB001B39FC001A39F700D811D1124A0
S11305C0911DB29F700D811D1124911D0895F89401
S10505D0FFCF57
S10705D2FFFFFFFF25
S9030000FC
